Error: transaction failed [ See: https://links.ethers.org/v5-errors-CALL_EXCEPTION ] (transactionHash="0x6d0916919a2e07ad63f4e5252df9f07b4787284b9fd95f3ed5ba757e05271884", transaction={"hash":"0x6d0916919a2e07ad63f4e5252df9f07b4787284b9fd95f3ed5ba757e05271884","type":0,"accessList":null,"blockHash":null,"blockNumber":null,"transactionIndex":null,"confirmations":0,"from":"0xE4ef74629a9da7DFd2a940c4BFBA56D3B8110769","gasPrice":{"type":"BigNumber","hex":"0x174876e800"},"gasLimit":{"type":"BigNumber","hex":"0x2625a0"},"to":"0x2372AA79d0f35310E3Cd3525ecff352922bdAf7C","value":{"type":"BigNumber","hex":"0x00"},"nonce":12586,"data":"0x68ff0ee0000000000000000000000000000000000000000000000000000000000000002000000000000000000000000000000000000000000000000000000000000403f50000000000000000000000000000000000000000000000000000000000000000000000000000000000000000000000000000000000000000000000000000008000000000000000000000000000000000000000000000000000000000000001000000000000000000000000000000000000000000000000000000000000000003000000000000000000000000acc15dc74880c9944775448304b263d191c6077f0000000000000000000000001dc78acda13a8bc4408b207c9e48cdbc096d95e0000000000000000000000000acc15dc74880c9944775448304b263d191c6077f0000000000000000000000000000000000000000000000000000000000000002000000000000000000000000000000000000000000000000000000000000004000000000000000000000000000000000000000000000000000000000000000c0000000000000000000000000e28459075c806b1bfa72a38e669ccd6fb4125f6a000000000000000000000000000000000000000000000000000000000000006500000000000000000000000000000000000000000000000000000000000000600000000000000000000000000000000000000000000000000000000000000000000000000000000000000000caf6d9a502aee41a0ef1a079d0cef8e877588116000000000000000000000000000000000000000000000000000000000000007c00000000000000000000000000000000000000000000000000000000000000600000000000000000000000000000000000000000000000000000000000000000","r":"0xdde9198208707e3622659baf35674d4bdda80672f6a9001c45cfa9fab31f1902","s":"0x5883e76b07406d34b92fd8c073fa1c6add63ae02694af55d4ee91dc01ac62704","v":2603,"creates":null,"raw":"0xf902ef82312a85174876e800832625a0942372aa79d0f35310e3cd3525ecff352922bdaf7c80b9028468ff0ee0000000000000000000000000000000000000000000000000000000000000002000000000000000000000000000000000000000000000000000000000000403f50000000000000000000000000000000000000000000000000000000000000000000000000000000000000000000000000000000000000000000000000000008000000000000000000000000000000000000000000000000000000000000001000000000000000000000000000000000000000000000000000000000000000003000000000000000000000000acc15dc74880c9944775448304b263d191c6077f0000000000000000000000001dc78acda13a8bc4408b207c9e48cdbc096d95e0000000000000000000000000acc15dc74880c9944775448304b263d191c6077f0000000000000000000000000000000000000000000000000000000000000002000000000000000000000000000000000000000000000000000000000000004000000000000000000000000000000000000000000000000000000000000000c0000000000000000000000000e28459075c806b1bfa72a38e669ccd6fb4125f6a000000000000000000000000000000000000000000000000000000000000006500000000000000000000000000000000000000000000000000000000000000600000000000000000000000000000000000000000000000000000000000000000000000000000000000000000caf6d9a502aee41a0ef1a079d0cef8e877588116000000000000000000000000000000000000000000000000000000000000007c00000000000000000000000000000000000000000000000000000000000000600000000000000000000000000000000000000000000000000000000000000000820a2ba0dde9198208707e3622659baf35674d4bdda80672f6a9001c45cfa9fab31f1902a05883e76b07406d34b92fd8c073fa1c6add63ae02694af55d4ee91dc01ac62704","chainId":1284}, receipt={"to":"0x2372AA79d0f35310E3Cd3525ecff352922bdAf7C","from":"0xE4ef74629a9da7DFd2a940c4BFBA56D3B8110769","contractAddress":null,"transactionIndex":9,"gasUsed":{"type":"BigNumber","hex":"0x039834"},"logsBloom":"0x00000000000000000000000000000000000000000000000000000000000000000000000000000000000000000000000000000000000000000000000000000000000000000000000000000000000000000000000000000000000000000000000000000000000000000000000000000000000000000000000000000000000000000000000000000000000000000000000000000000000000000000000000000000000000000000000000000000000000000000000000000000000000000000000000000000000000000000000000000000000000000000000000000000000000000000000000000000000000000000000000000000000000000000000000000000","blockHash":"0x3b09d65301fcc8e138482fc4fde2981230f3c6a0a791fe5ed05c643cb2cd9a52","transactionHash":"0x6d0916919a2e07ad63f4e5252df9f07b4787284b9fd95f3ed5ba757e05271884","logs":[],"blockNumber":1765234,"confirmations":1,"cumulativeGasUsed":{"type":"BigNumber","hex":"0x17000d"},"effectiveGasPrice":{"type":"BigNumber","hex":"0x174876e800"},"status":0,"type":0,"byzantium":true}, code=CALL_EXCEPTION, version=providers/5.6.8)
    at Logger.makeError (/home/tpx1c/projects/evm-leach/moonbeam-mempool-pending-tx/node_modules/@ethersproject/logger/src.ts/index.ts:261:28)
    at Logger.throwError (/home/tpx1c/projects/evm-leach/moonbeam-mempool-pending-tx/node_modules/@ethersproject/logger/src.ts/index.ts:273:20)
    at WebSocketProvider.<anonymous> (/home/tpx1c/projects/evm-leach/moonbeam-mempool-pending-tx/node_modules/@ethersproject/providers/src.ts/base-provider.ts:1541:24)
    at step (/home/tpx1c/projects/evm-leach/moonbeam-mempool-pending-tx/node_modules/@ethersproject/providers/lib/base-provider.js:48:23)
    at Object.next (/home/tpx1c/projects/evm-leach/moonbeam-mempool-pending-tx/node_modules/@ethersproject/providers/lib/base-provider.js:29:53)
    at fulfilled (/home/tpx1c/projects/evm-leach/moonbeam-mempool-pending-tx/node_modules/@ethersproject/providers/lib/base-provider.js:20:58) {
  reason: 'transaction failed',
  code: 'CALL_EXCEPTION',
  transactionHash: '0x6d0916919a2e07ad63f4e5252df9f07b4787284b9fd95f3ed5ba757e05271884',
  transaction: {
    hash: '0x6d0916919a2e07ad63f4e5252df9f07b4787284b9fd95f3ed5ba757e05271884',
    type: 0,
    accessList: null,
    blockHash: null,
    blockNumber: null,
    transactionIndex: null,
    confirmations: 0,
    from: '0xE4ef74629a9da7DFd2a940c4BFBA56D3B8110769',
    gasPrice: BigNumber { _hex: '0x174876e800', _isBigNumber: true },
    gasLimit: BigNumber { _hex: '0x2625a0', _isBigNumber: true },
    to: '0x2372AA79d0f35310E3Cd3525ecff352922bdAf7C',
    value: BigNumber { _hex: '0x00', _isBigNumber: true },
    nonce: 12586,
    data: '0x68ff0ee0000000000000000000000000000000000000000000000000000000000000002000000000000000000000000000000000000000000000000000000000000403f50000000000000000000000000000000000000000000000000000000000000000000000000000000000000000000000000000000000000000000000000000008000000000000000000000000000000000000000000000000000000000000001000000000000000000000000000000000000000000000000000000000000000003000000000000000000000000acc15dc74880c9944775448304b263d191c6077f0000000000000000000000001dc78acda13a8bc4408b207c9e48cdbc096d95e0000000000000000000000000acc15dc74880c9944775448304b263d191c6077f0000000000000000000000000000000000000000000000000000000000000002000000000000000000000000000000000000000000000000000000000000004000000000000000000000000000000000000000000000000000000000000000c0000000000000000000000000e28459075c806b1bfa72a38e669ccd6fb4125f6a000000000000000000000000000000000000000000000000000000000000006500000000000000000000000000000000000000000000000000000000000000600000000000000000000000000000000000000000000000000000000000000000000000000000000000000000caf6d9a502aee41a0ef1a079d0cef8e877588116000000000000000000000000000000000000000000000000000000000000007c00000000000000000000000000000000000000000000000000000000000000600000000000000000000000000000000000000000000000000000000000000000',
    r: '0xdde9198208707e3622659baf35674d4bdda80672f6a9001c45cfa9fab31f1902',
    s: '0x5883e76b07406d34b92fd8c073fa1c6add63ae02694af55d4ee91dc01ac62704',
    v: 2603,
    creates: null,
    raw: '0xf902ef82312a85174876e800832625a0942372aa79d0f35310e3cd3525ecff352922bdaf7c80b9028468ff0ee0000000000000000000000000000000000000000000000000000000000000002000000000000000000000000000000000000000000000000000000000000403f50000000000000000000000000000000000000000000000000000000000000000000000000000000000000000000000000000000000000000000000000000008000000000000000000000000000000000000000000000000000000000000001000000000000000000000000000000000000000000000000000000000000000003000000000000000000000000acc15dc74880c9944775448304b263d191c6077f0000000000000000000000001dc78acda13a8bc4408b207c9e48cdbc096d95e0000000000000000000000000acc15dc74880c9944775448304b263d191c6077f0000000000000000000000000000000000000000000000000000000000000002000000000000000000000000000000000000000000000000000000000000004000000000000000000000000000000000000000000000000000000000000000c0000000000000000000000000e28459075c806b1bfa72a38e669ccd6fb4125f6a000000000000000000000000000000000000000000000000000000000000006500000000000000000000000000000000000000000000000000000000000000600000000000000000000000000000000000000000000000000000000000000000000000000000000000000000caf6d9a502aee41a0ef1a079d0cef8e877588116000000000000000000000000000000000000000000000000000000000000007c00000000000000000000000000000000000000000000000000000000000000600000000000000000000000000000000000000000000000000000000000000000820a2ba0dde9198208707e3622659baf35674d4bdda80672f6a9001c45cfa9fab31f1902a05883e76b07406d34b92fd8c073fa1c6add63ae02694af55d4ee91dc01ac62704',
    chainId: 1284,
    wait: [Function (anonymous)]
  },
  receipt: {
    to: '0x2372AA79d0f35310E3Cd3525ecff352922bdAf7C',
    from: '0xE4ef74629a9da7DFd2a940c4BFBA56D3B8110769',
    contractAddress: null,
    transactionIndex: 9,
    gasUsed: BigNumber { _hex: '0x039834', _isBigNumber: true },
    logsBloom: '0x00000000000000000000000000000000000000000000000000000000000000000000000000000000000000000000000000000000000000000000000000000000000000000000000000000000000000000000000000000000000000000000000000000000000000000000000000000000000000000000000000000000000000000000000000000000000000000000000000000000000000000000000000000000000000000000000000000000000000000000000000000000000000000000000000000000000000000000000000000000000000000000000000000000000000000000000000000000000000000000000000000000000000000000000000000000',
    blockHash: '0x3b09d65301fcc8e138482fc4fde2981230f3c6a0a791fe5ed05c643cb2cd9a52',
    transactionHash: '0x6d0916919a2e07ad63f4e5252df9f07b4787284b9fd95f3ed5ba757e05271884',
    logs: [],
    blockNumber: 1765234,
    confirmations: 1,
    cumulativeGasUsed: BigNumber { _hex: '0x17000d', _isBigNumber: true },
    effectiveGasPrice: BigNumber { _hex: '0x174876e800', _isBigNumber: true },
    status: 0,
    type: 0,
    byzantium: true
  }
}